:040000000201903237
:01000B0032C2
:0100130032BA
:01001B0032B2
:0300230002009C3C
:01002B0032A2
:0300330002005C6C
:01003B003292
:01004300328A
:01005300327A
:10005B003200C0E0C0D075D018AADAABD9EAC454CC
:10006B00072324B2F8EA540FF608EBF6B2B705D81B
:10007B0053D807200A06D55903120E57D5370DD280
:10008B0004753708200C05D55C02D20CD0D0D0E01B
:10009B0032309837C0F0C0E0C0D075D010E599C2AF
:1000AB009830A6061200D70200CD6016B40A0302E0
:1000BB0000CDA856F6B8B10050020556B40D031288
:1000CB00103F2098D8D0D0D0E0D0F032B4FF0675D6
:1000DB00630002015930E708F562756301020159AB
:1000EB00C0E0E56305637004D0E080E3147007D0D3
:1000FB00E0F531020159147007D0E0F532020159D5
:10010B00147047D0E0256225312532547F70C0E54D
:10011B006230E60343318030E503433280541F23C2
:10012B00B2A1D20012015A70077430B2A20201467A
:10013B00B4020302014F7431755D191205CC900B9B
:10014B004E1205B3120F1E020159D0E0808122F826
:10015B009012D493F9E80493F5828983E473227A9D
:10016B00007B0002017102017402017702017A0225
:10017B00017D020180020183DBE9C2AFD2C0D2C193
:10018B00D2AFDADD22C2A030C202D2A0D2C075C07B
:10019B00427580FFD2B2C20DD2A7D2A6756300758D
:1001AB005D1975B80075D0007581CBC20775570006
:1001BB007558327559C8C20AC20B755C4BC20C75A7
:1001CB003708C20478C27908E4F608D9FC43AF813A
:1001DB0075D701D2B3759E83759D08759D2D759846
:1001EB005275EFFE75D80075CB9475CB6375CBA3A9
:1001FB0075CA0075C804C0D075D010120F1ED0D0B0
:10020B0075F800D2A5D2A3D2A4D2B5D2B375530F31
:10021B00753800120B390538120B39C2B3D2B5D26F
:10022B00B4D2A412060ED2B312060E75F005C0F0AE
:10023B00C20FC20E7F007E17120AAFBDE60BEC5445
:10024B00F0B42005D0F0020272D20E7F007E17129E
:10025B000AAFBDE60BEC54F0B42005D0F0020272ED
:10026B00D0F0D5F0C9D20F30A7030202F8120C421E
:10027B00D3120DA3316AC3120DA3D3120DB2316A7F
:10028B00C3120DB2D3120DC1316AC3120DC1D312F9
:10029B000DD0316AC3120DD0D3120DDF316AC312E8
:1002AB000DDFD3120DEE316AC3120DEED3120DFD1D
:1002BB00316AC3120DFDD3120E0C316AC3120E0C30
:1002CB00D3120E1B316AC3120E1BD3120E2A316AC4
:1002DB00C3120E2AD3120E39316AC3120E39D3123E
:1002EB000E48316AC3120E48121287808330A7144E
:1002FB00D3120DA3316AC3120DA3316A1208D412A3
:10030B0009B160E91208B5753B00753C00753D00FD
:10031B00753E00753F00754000755E00755F00759A
:10032B0060FF7561FF754C25754B01754A06754964
:10033B002575480275470675460175454575444553
:10034B0075434575424575410230A0064340100286
:10035B000360434002D2ACD2AED20DD2AFC2AFD209
:10036B00C0D2C1D2AF755A007400120E84E55BA2E5
:10037B000892E0A20992E1F55B7401120E84E55B31
:10038B00A20892E2A20992E3F55B7402120E84E5D5
:10039B005BA20892E6A20992E7F55B7403120E8446
:1003AB00E55BA20892E4A20992E5F55BE53D30E33B
:1003BB000E300C10E55B5455600AD20B0203D1755D
:1003CB005C4BC20CC20B20B2947F007E0A120AAFA8
:1003DB0030B2F6EC20E00280847F007E08120AAF78
:1003EB00ED54F070F4E53B6DFA5DF54FE53C6CFBBD
:1003FB005CF550EDF45AF551ECF45BF5528D3B8CFA
:10040B003C7841754D00754E01E6541F7017E54D54
:10041B00F4523FF4553B423FE54EF45240F4553C09
:10042B0042400204C214701DE54F554D423FE5504A
:10043B00554E4240E551554DF4523FE552554EF461
:10044B0052400204C2147011E54F554DF4523FE572
:10045B0050554EF452400204C21470030204C214ED
:10046B00700FE54F554D423FE550554E424002044B
:10047B00C214701CE54D554F6008120584423F02B3
:10048B0004C2E54E5550602F12058442400204C24F
:10049B00E54D554F6008120584423F0204B4E54E0A
:1004AB00555060051205844240E551554DF4523FBD
:1004BB00E552554EF4524008C3E54E33F54EE54D2B
:1004CB0033F54D20E4028114E540C2AF5561455F21
:1004DB00755F007561FF300D02D2AFF54013120D41
:1004EB00A313120DB213120DC113120DD013120D53
:1004FB00DF13120DEE13120DFD13120E0CE53FC29E
:10050B00AF5560455E755E007560FF300D02D2AF72
:10051B00F53F13120E1B13120E2A13120E39131260
:10052B000E48C2AF853F3D85403E300D02D2AF61D4
:10053B0068C2AFD2C0D2C1D2AFC3120DA3C3120DCA
:10054B00B2C3120DC1C3120DD0C3120DDFC3120DF6
:10055B00EEC3120DFDC3120E0CC3120E1BC3120EF3
:10056B002AC3120E39C3120E48D3120E1B316A3135
:10057B006AC3120E1B316A80F000C0E0C0F0E6F5D2
:10058B00F07BFF7AFE7941C3E998600CE7C395F0E5
:10059B007006EB523FEA524009D3EA33FAEB33FBD6
:1005AB0020E4E4D0F0D0E02200C0E0C0F0E4F5F0AD
:1005BB00E5F005F09360051205CC80F4D0F0D0E0A7
:1005CB0022C0E0740020990F0205D60205D902055E
:1005DB00DC0205DFD5E0EED0E0C299F59922C39499
:1005EB0030B40A00401BB4110040139407B4100040
:1005FB00400FB42A0040079420B410004003C3748A
:10060B00FFB3222200C0F075F008C2B53392B3D10C
:10061B000ED2B5D10EC2B5D5F0F2D2B3D10ED2B542
:10062B00A2B3D10EC2B5D0F022C2B53392B3D10E64
:10063B00D2B5D10EC2B53392B3D10ED2B5D10EC253
:10064B00B53392B3D10ED2B5D10EC2B53392B3D16D
:10065B000ED2B5D10EC2B53392B3D10ED2B5D10EE7
:10066B00C2B53392B3D10ED2B5D10EC2B53392B35C
:10067B00D10ED2B5D10EC2B53392B3D10ED2B5D104
:10068B000EC2B5D2B3D10ED2B5A2B3D10EC2B52222
:10069B0000D2B3C0F075F008C2B5D10EA2B3D2B57B
:1006AB0033D10EC2B5D5F0F2C2B3D10ED2B5D10E45
:1006BB00C2B5D2B3D0F022D2B3C2B5D10EA2B3D24F
:1006CB00B533D10EC2B5D10EA2B3D2B533D10EC252
:1006DB00B5D10EA2B3D2B533D10EC2B5D10EA2B3E2
:1006EB00D2B533D10EC2B5D10EA2B3D2B533D10E22
:1006FB00C2B5D10EA2B3D2B533D10EC2B5D10EA2B3
:10070B00B3D2B533D10EC2B5D10EA2B3D2B533D15C
:10071B000EC2B5C2B3D10ED2B5D10EC2B5D2B32271
:10072B0000D2B3C0F075F008C2B5D10EA2B3D2B5EA
:10073B0033D10EC2B5D5F0F2D2B3D10ED2B5D10EA4
:10074B00C2B5D0F022D2B3C2B5D10EA2B3D2B5335B
:10075B00D10EC2B5D10EA2B3D2B533D10EC2B5D123
:10076B000EA2B3D2B533D10EC2B5D10EA2B3D2B550
:10077B0033D10EC2B5D10EA2B3D2B533D10EC2B5A1
:10078B00D10EA2B3D2B533D10EC2B5D10EA2B3D214
:10079B00B533D10EC2B5D10EA2B3D2B533D10EC281
:1007AB00B5D2B3D10ED2B5D10EC2B52200D2B3D2CF
:1007BB00B5D2B4D2A4D10EC2B3D10EC2B5745ED130
:1007CB0034EFD134EED1342200D2B3D2B5D2B4D27D
:1007DB00A4D10EC2B3D10EC2B5745FD13422C2B351
:1007EB00C2B5D10ED2B5D10ED2B3D10E2200C2AF4B
:1007FB00F1B71208091207E9300D02D2AF2200ED52
:10080B00120634EC1206342200C2AF120822120870
:10081B0036300D02D2AF22001207B71207E91207CA
:10082B00D3221206C2FD1206C2FC221206C2FD1210
:10083B000750FC1207E92200C0F075F008D2B50092
:10084B00C0F0D0F0003392B4C2B500C0F0D0F000CD
:10085B00A2B392E0D5F0E6D2B500C0F0D0F000D054
:10086B00F022C2AFE5387005C2A502087AC2A3ED2B
:10087B001142EC1142D2A5D2A3300D02D2AF2230DD
:10088B000E04120895221207F822C2AFC2A4EF443D
:10089B00E01142EE1142ED1142EC1142D2A400C024
:1008AB00F0D0F000300D02D2AF227F007E02120A90
:1008BB00AF7F007E017DFF7CFF118A7F007E0212DD
:1008CB000AAF74404DFD118A22200E0302094D7FA1
:1008DB00007E007D047C00119578007900D9FED84C
:1008EB00FC75C60075C700C2A478307FE07E80EF30
:1008FB001142EE114275B90105C6E5C6700205C776
:10090B00E5BD1142E5BC1142E5BF1142E5BE114206
:10091B00D8E3D2A478047FE07E00C2A4EF1142EEAC
:10092B00114275B90105C6E5C6700205C7E5BD11D3
:10093B0042E5BC1142E5BF1142E5BE1142D8E3D2FC
:10094B00A4227F007E007D047C001207F8780079DA
:10095B0000D9FED8FC75C60075C70078307F007EC5
:10096B00801207B775B90105C6E5C6700205C7AD9C
:10097B00BDACBC1109ADBFACBE1109D8E71207E97C
:10098B0078047F007E001207B775B90105C6E5C66E
:10099B00700205C7ADBDACBC1109ADBFACBE110932
:1009AB00D8E71207E922200E03020A3375C6007539
:1009BB00C7007830C2A474E411427480114275B937
:1009CB000105C6E5C6700205C774001142B5BD53DB
:1009DB0074001142B5BC4C74001142B5BF45740094
:1009EB001142B5BE3ED8D7D2A4780474E4C2A41188
:1009FB00427400114275B90105C6E5C6700205C700
:100A0B0074001142B5BD1C74001142B5BC157400C5
:100A1B001142B5BF0E74001142B5BE07D8D7740191
:100A2B00020A307400D2A42275C60075C700783054
:100A3B007F007E80112275B90105C6E5C6700205DF
:100A4B00C71206C2B5BD5A1206C2B5BC541206C2B5
:100A5B00B5BF4EE81460061206C2020A6B120750AD
:100A6B00B5BE3ED8D178047F007E00112275B90146
:100A7B0005C6E5C6700205C71206C2B5BD23120630
:100A8B00C2B5BC1D1206C2B5BF17E814600612062C
:100A9B00C2020AA2120750B5BE89D8D17401020A4C
:100AAB00AE740022300E04120AB922111322C2AF07
:100ABB00C2A4EF44E41142EE114274001142FD74E2
:100ACB00001142FCD2A4300D02D2AF2200C0E07C58
:100ADB0000C313C313541F2408FD116DD0E0220073
:100AEB00C0E07C012420FD116DD0E02200C0E07C31
:100AFB00002420FD116DD0E02200C0E0C3132410B0
:100B0B00FDE8C448FC116DD0E0223004FDC2042284
:100B1B0051EAC20478007104711508B810F822C2AA
:100B2B0004780E7104711518B8FFF851F7227D0483
:100B3B007C41116D740C51D7A853710451F704B457
:100B4B0020F4220D007A0275F000E9C0E0E7C4C082
:100B5B00E0540F45F0F7D0F053F0F009DAEFE5F081
:100B6B00C4B40A00400224072430D0F0A9F0227A42
:100B7B000275F000740129F9E7C4C0E054F045F0A8
:100B8B00F7D0F053F00F19DAEF227A047400C0E0BB
:100B9B00740129FBEBF8D0E0C4F5F0E7C4540F4522
:100BAB00F075F00A84C0F0540FF5F0E6C4C0E054C1
:100BBB00F045F0F6D0E0540FF5F018E6C454F045CC
:100BCB00F0F6DAD0D0E02430227C057D997F0071DD
:100BDB0095B430040F020BE57F00C0E01DEDF8D09B
:100BEB00E0F6DCEB7405C39F700874301205CC0281
:100BFB000C0AFCED2FFDEDF8E61205CC0DDCF7220F
:100C0B007C047D987F007150B430040F020C1C7F64
:100C1B0000C0E01DEDF8D0E0F6DCEB7404C39F7070
:100C2B000874301205CC020C41FCED2FFDEDF8E6FB
:100C3B001205CC0DDCF72275C60075C700900CAD04
:100C4B007834E493A3F5BDE493A3F5BCE493A3F547
:100C5B00BFE493A3F5BE75B90575B90205C6E5C624
:100C6B00700205C7D2C0D2C1D8D82275C60075C7CD
:100C7B00007F007E80783051AF0EBE00010F8DBD1E
:100C8B008CBC51AF0EBE00010F8DBF8CBE75B9056C
:100C9B0075B90205C6E5C6700205C7D2C0D2C1D868
:100CAB00D622FFFE3FFF2F00262629001F403A9831
:100CBB003A98FFFB3FFF07002626110003E80514B7
:100CCB0032C8FFEF3FFF070026261100015E02DC52
:100CDB0032C8FFBF3FFF070026261100009600FA1F
:100CEB0032C8FEFF3FFF070026261100012C01C270
:100CFB0032C8FBFF3FFF2F0026262900012C019055
:100D0B003A98FFFF3FFB190026262B0001C2022653
:100D1B0036B0FFFF3FEF190026262B0003200546B8
:100D2B0036B0FFFF3FBF190026262B00015E01AE38
:100D3B0036B0FFFF3EFF190026262B00019002BCA8
:100D4B0036B0FFFF3BFF19000A422B0003E805DC1E
:100D5B0036B0FFFF2FFF190026262B0003E807D024
:100D6B0036B000B0000006901674290F000000008A
:100D7B000001000000000F81000051F704D8FB2296
:100D8B0051EA04D8FB224007B185C205020D9EB182
:100D9B008BD205A205C2052200C0E0753801741C78
:100DAB007804B191D0E02200C0E0753801741A7854
:100DBB0002B191D0E02200C0E075380174187802BE
:100DCB00B191D0E02200C0E075380174167802B101
:100DDB0091D0E02200C0E075380174147802B19113
:100DEB00D0E02200C0E075380174107804B191D0C6
:100DFB00E02200C0E0753801740C7804B191D0E0AA
:100E0B002200C0E0753800741C7804B191D0E02248
:100E1B0000C0E075380074187804B191D0E022005E
:100E2B00C0E075380074147804B191D0E02200C092
:100E3B00E075380074107804B191D0E02200C0E066
:100E4B00753800740C7804B191D0E022D20A78B2D4
:100E5B0079C2E6F70809E6F70809E6F70809E6F7A5
:100E6B000809E6F70809E6F70809E6F70809E6F7BF
:100E7B000809E6F70809E6F7222304FAC208C209B3
:100E8B0024B2F874C22AF9C3C2AFE6971819F5F069
:100E9B00E6300D02D2AF9720E711C3C5F09558C5C8
:100EAB00F0955720E714D208020EC5C5F02558C59A
:100EBB00F0355730E704D208D20922E493700302CD
:100ECB000ED0A380F6A30E227E009012987880EBB2
:100EDB00FDE4937005A30E020EF4C3967009DD03B7
:100EEB00020EFB08A380EAD1C69370E1E4020F1D4A
:100EFB00A3E49370F7C2AFD2C0D2C1D2AFEE2EF83B
:100F0B009012D493F9E80493F53A8939F5828983E1
:100F1B00E473227B00C200C201C202C2067530809C
:100F2B0075569E78317902760008D9FB22B40D32C2
:100F3B00020F3EE4200109BB000602103E20020214
:100F4B00D1D370057430020F5FB40203020F6874C3
:100F5B0031755D191205CC900B4E1205B3F11E02C3
:100F6B00103E20015AB42003020F85B42C03020F4C
:100F7B0085B43D03020F85B4090BBB000302103C83
:100F8B00D20102103EB441028005500302103CB462
:100F9B005A0280054003020FA64420B4610280056B
:100FAB00500302103CB47A028005400302103CA8A7
:100FBB0030B8940302103CF60B08883002103E3018
:100FCB0007081205E9406A020FE9B43002800550A8
:100FDB000302103CB439028005400302103C540F4D
:100FEB00D200C0E0200735C3E53233F532F534E5E6
:100FFB003133F531F533C3E53233F532E53133F5C2
:10100B0031C3E53233F532E53133F531C3E53235F2
:10101B0034F532E5313533F53102102C7931120BC1
:10102B007A78327902D0E0C336F6E418D9FA021096
:10103B003ED2022275569EA856E6B40D04120F3806
:10104B0022120F38055680EF200704120BD4221200
:10105B000C0B22853B54853C5553540F4354803025
:10106B00A00343541079541153900B4E1205B33017
:10107B000002C2A0740222853D54853E5553540F85
:10108B00435440300B034354105355E130A00343FA
:10109B00550279541153900B4E1205B3300002C216
:1010AB00A0740222E53CA2E7E53E0392E4F55485E9
:1010BB005B5553541F43542079541153900B4E12CC
:1010CB0005B3740222300058E532B40500500830E5
:1010DB00E111B2E00210EE78C0E6F55408E6F555E2
:1010EB0002111C2304F5F024B2F874C225F0F9E6C2
:1010FB00C397F5551819E697F55430E714742D126C
:10110B0005CCE555F4D33400F555E554F43400F52E
:10111B005479541153900B4E1205B3740202112CD7
:10112B00E42230000B853135853236740102113CD7
:10113B00E422AF35AE36120AAF8D548C557954116B
:10114B0053900B4E1205B3740222300010AD31AC2C
:10115B0032AF35AE3612088A7401021169E42230BF
:10116B000016E532540FF553753800120B3905385C
:10117B00120B397401021184E422300010E5326045
:10118B0005D207021193C2077401021199E42230B0
:10119B000011E531B40C00500A2441F8A632740159
:1011AB000211AFE42230002CE532B40C030211DF44
:1011BB005022047E007F01F5F0D5F00FEE425E4227
:1011CB0060EF425F426174010211E0C3EF33FFEE47
:1011DB0033FE80E5E42230002CE532B40C0302121E
:1011EB00105022047EFF7FFEF5F0D5F00FEE52601B
:1011FB00525EEF5261525F7401021211D3EF33FF53
:10120B00EE33FE80E5E422C2AF120C42D2AF900B5C
:10121B004E1205B3740122C2AF120C76D2AF900BF3
:10122B004E1205B3740122300006853157853258B2
:10123B00120E57740122D2C075C08280FE227554E3
:10124B000175550B79541153900B4E1205B3740263
:10125B0022300F097554047555D202127A200E09EB
:10126B0075541B7555E702127A75541B7555E67943
:10127B00541153900B4E1205B37402227554D4754E
:10128B00553179541153900B4E1205B32273006AEA
:10129B000061007200770072656C6F6164006C0016
:1012AB006F006600690074797065006800620071F8
:1012BB0000646F6700736176650076657273696FA2
:1012CB006E0071636869700000105E10D0112D11F3
:1012DB003D11551212108211B011E1116A119A11C0
:0D12EB0085123210AF124112221249125C1E
:00000001FF
